{
  "_format": "hh-sol-artifact-1",
  "contractName": "LST",
  "sourceName": "contracts/LST.sol",
  "abi": [
    {
      "inputs": [
        {
          "internalType": "address",
          "name": "owner",
          "type": "address"
        },
        {
          "internalType": "uint256",
          "name": "initialSupply",
          "type": "uint256"
        }
      ],
      "stateMutability": "nonpayable",
      "type": "constructor"
    },
    {
      "inputs": [],
      "name": "Blacklisted",
      "type": "error"
    },
    {
      "inputs": [
        {
          "internalType": "address",
          "name": "spender",
          "type": "address"
        },
        {
          "internalType": "uint256",
          "name": "allowance",
          "type": "uint256"
        },
        {
          "internalType": "uint256",
          "name": "needed",
          "type": "uint256"
        }
      ],
      "name": "ERC20InsufficientAllowance",
      "type": "error"
    },
    {
      "inputs": [
        {
          "internalType": "address",
          "name": "sender",
          "type": "address"
        },
        {
          "internalType": "uint256",
          "name": "balance",
          "type": "uint256"
        },
        {
          "internalType": "uint256",
          "name": "needed",
          "type": "uint256"
        }
      ],
      "name": "ERC20InsufficientBalance",
      "type": "error"
    },
    {
      "inputs": [
        {
          "internalType": "address",
          "name": "approver",
          "type": "address"
        }
      ],
      "name": "ERC20InvalidApprover",
      "type": "error"
    },
    {
      "inputs": [
        {
          "internalType": "address",
          "name": "receiver",
          "type": "address"
        }
      ],
      "name": "ERC20InvalidReceiver",
      "type": "error"
    },
    {
      "inputs": [
        {
          "internalType": "address",
          "name": "sender",
          "type": "address"
        }
      ],
      "name": "ERC20InvalidSender",
      "type": "error"
    },
    {
      "inputs": [
        {
          "internalType": "address",
          "name": "spender",
          "type": "address"
        }
      ],
      "name": "ERC20InvalidSpender",
      "type": "error"
    },
    {
      "inputs": [
        {
          "internalType": "address",
          "name": "owner",
          "type": "address"
        }
      ],
      "name": "OwnableInvalidOwner",
      "type": "error"
    },
    {
      "inputs": [
        {
          "internalType": "address",
          "name": "account",
          "type": "address"
        }
      ],
      "name": "OwnableUnauthorizedAccount",
      "type": "error"
    },
    {
      "inputs": [],
      "name": "TradingDisabled",
      "type": "error"
    },
    {
      "anonymous": false,
      "inputs": [
        {
          "indexed": true,
          "internalType": "address",
          "name": "owner",
          "type": "address"
        },
        {
          "indexed": true,
          "internalType": "address",
          "name": "spender",
          "type": "address"
        },
        {
          "indexed": false,
          "internalType": "uint256",
          "name": "value",
          "type": "uint256"
        }
      ],
      "name": "Approval",
      "type": "event"
    },
    {
      "anonymous": false,
      "inputs": [
        {
          "indexed": true,
          "internalType": "address",
          "name": "previousOwner",
          "type": "address"
        },
        {
          "indexed": true,
          "internalType": "address",
          "name": "newOwner",
          "type": "address"
        }
      ],
      "name": "OwnershipTransferred",
      "type": "event"
    },
    {
      "anonymous": false,
      "inputs": [
        {
          "indexed": true,
          "internalType": "address",
          "name": "from",
          "type": "address"
        },
        {
          "indexed": true,
          "internalType": "address",
          "name": "to",
          "type": "address"
        },
        {
          "indexed": false,
          "internalType": "uint256",
          "name": "value",
          "type": "uint256"
        }
      ],
      "name": "Transfer",
      "type": "event"
    },
    {
      "inputs": [
        {
          "internalType": "address",
          "name": "owner",
          "type": "address"
        },
        {
          "internalType": "address",
          "name": "spender",
          "type": "address"
        }
      ],
      "name": "allowance",
      "outputs": [
        {
          "internalType": "uint256",
          "name": "",
          "type": "uint256"
        }
      ],
      "stateMutability": "view",
      "type": "function"
    },
    {
      "inputs": [
        {
          "internalType": "address",
          "name": "spender",
          "type": "address"
        },
        {
          "internalType": "uint256",
          "name": "value",
          "type": "uint256"
        }
      ],
      "name": "approve",
      "outputs": [
        {
          "internalType": "bool",
          "name": "",
          "type": "bool"
        }
      ],
      "stateMutability": "nonpayable",
      "type": "function"
    },
    {
      "inputs": [
        {
          "internalType": "address",
          "name": "account",
          "type": "address"
        }
      ],
      "name": "balanceOf",
      "outputs": [
        {
          "internalType": "uint256",
          "name": "",
          "type": "uint256"
        }
      ],
      "stateMutability": "view",
      "type": "function"
    },
    {
      "inputs": [],
      "name": "decimals",
      "outputs": [
        {
          "internalType": "uint8",
          "name": "",
          "type": "uint8"
        }
      ],
      "stateMutability": "view",
      "type": "function"
    },
    {
      "inputs": [],
      "name": "disableTrading",
      "outputs": [],
      "stateMutability": "nonpayable",
      "type": "function"
    },
    {
      "inputs": [],
      "name": "enableTrading",
      "outputs": [],
      "stateMutability": "nonpayable",
      "type": "function"
    },
    {
      "inputs": [],
      "name": "name",
      "outputs": [
        {
          "internalType": "string",
          "name": "",
          "type": "string"
        }
      ],
      "stateMutability": "view",
      "type": "function"
    },
    {
      "inputs": [],
      "name": "owner",
      "outputs": [
        {
          "internalType": "address",
          "name": "",
          "type": "address"
        }
      ],
      "stateMutability": "view",
      "type": "function"
    },
    {
      "inputs": [],
      "name": "renounceOwnership",
      "outputs": [],
      "stateMutability": "nonpayable",
      "type": "function"
    },
    {
      "inputs": [],
      "name": "symbol",
      "outputs": [
        {
          "internalType": "string",
          "name": "",
          "type": "string"
        }
      ],
      "stateMutability": "view",
      "type": "function"
    },
    {
      "inputs": [
        {
          "internalType": "address",
          "name": "to",
          "type": "address"
        },
        {
          "internalType": "bool",
          "name": "value",
          "type": "bool"
        }
      ],
      "name": "toggleBlacklist",
      "outputs": [],
      "stateMutability": "nonpayable",
      "type": "function"
    },
    {
      "inputs": [
        {
          "internalType": "address[]",
          "name": "users",
          "type": "address[]"
        },
        {
          "internalType": "bool",
          "name": "value",
          "type": "bool"
        }
      ],
      "name": "toggleTradingExceptions",
      "outputs": [],
      "stateMutability": "nonpayable",
      "type": "function"
    },
    {
      "inputs": [],
      "name": "totalSupply",
      "outputs": [
        {
          "internalType": "uint256",
          "name": "",
          "type": "uint256"
        }
      ],
      "stateMutability": "view",
      "type": "function"
    },
    {
      "inputs": [],
      "name": "tradingEnabled",
      "outputs": [
        {
          "internalType": "bool",
          "name": "",
          "type": "bool"
        }
      ],
      "stateMutability": "view",
      "type": "function"
    },
    {
      "inputs": [
        {
          "internalType": "address",
          "name": "to",
          "type": "address"
        },
        {
          "internalType": "uint256",
          "name": "value",
          "type": "uint256"
        }
      ],
      "name": "transfer",
      "outputs": [
        {
          "internalType": "bool",
          "name": "",
          "type": "bool"
        }
      ],
      "stateMutability": "nonpayable",
      "type": "function"
    },
    {
      "inputs": [
        {
          "internalType": "address",
          "name": "from",
          "type": "address"
        },
        {
          "internalType": "address",
          "name": "to",
          "type": "address"
        },
        {
          "internalType": "uint256",
          "name": "value",
          "type": "uint256"
        }
      ],
      "name": "transferFrom",
      "outputs": [
        {
          "internalType": "bool",
          "name": "",
          "type": "bool"
        }
      ],
      "stateMutability": "nonpayable",
      "type": "function"
    },
    {
      "inputs": [
        {
          "internalType": "address",
          "name": "newOwner",
          "type": "address"
        }
      ],
      "name": "transferOwnership",
      "outputs": [],
      "stateMutability": "nonpayable",
      "type": "function"
    }
  ],
  "bytecode": "0x60806040523480156200001157600080fd5b50604051620010ea380380620010ea83398101604081905262000034916200038c565b816040518060400160405280601581526020017f4c61756e6368657220536b756c6c7320546f6b656e0000000000000000000000815250604051806040016040528060038152602001621314d560ea1b81525081600390816200009891906200046e565b506004620000a782826200046e565b5050506001600160a01b038116620000da57604051631e4fbdf760e01b8152600060048201526024015b60405180910390fd5b620000e58162000114565b50336000908152600760205260409020805460ff191660011790556200010c828262000166565b505062000562565b600580546001600160a01b038381166001600160a01b0319831681179093556040519116919082907f8be0079c531659141344cd1fd0a4f28419497f9722a3daafe3b4186f6b6457e090600090a35050565b6001600160a01b038216620001925760405163ec442f0560e01b815260006004820152602401620000d1565b620001a060008383620001a4565b5050565b6001600160a01b03831660009081526006602052604090205460ff1615620001df576040516309550c7760e01b815260040160405180910390fd5b6001600160a01b03831615801590620002025750600554600160a01b900460ff16155b80156200022857506001600160a01b03831660009081526007602052604090205460ff16155b15620002475760405163bcb8b8fb60e01b815260040160405180910390fd5b6200025483838362000259565b505050565b6001600160a01b038316620002885780600260008282546200027c91906200053a565b90915550620002fc9050565b6001600160a01b03831660009081526020819052604090205481811015620002dd5760405163391434e360e21b81526001600160a01b03851660048201526024810182905260448101839052606401620000d1565b6001600160a01b03841660009081526020819052604090209082900390555b6001600160a01b0382166200031a5760028054829003905562000339565b6001600160a01b03821660009081526020819052604090208054820190555b816001600160a01b0316836001600160a01b03167fddf252ad1be2c89b69c2b068fc378daa952ba7f163c4a11628f55a4df523b3ef836040516200037f91815260200190565b60405180910390a3505050565b60008060408385031215620003a057600080fd5b82516001600160a01b0381168114620003b857600080fd5b6020939093015192949293505050565b634e487b7160e01b600052604160045260246000fd5b600181811c90821680620003f357607f821691505b6020821081036200041457634e487b7160e01b600052602260045260246000fd5b50919050565b601f82111562000254576000816000526020600020601f850160051c81016020861015620004455750805b601f850160051c820191505b81811015620004665782815560010162000451565b505050505050565b81516001600160401b038111156200048a576200048a620003c8565b620004a2816200049b8454620003de565b846200041a565b602080601f831160018114620004da5760008415620004c15750858301515b600019600386901b1c1916600185901b17855562000466565b600085815260208120601f198616915b828110156200050b57888601518255948401946001909101908401620004ea565b50858210156200052a5787850151600019600388901b60f8161c191681555b5050505050600190811b01905550565b808201808211156200055c57634e487b7160e01b600052601160045260246000fd5b92915050565b610b7880620005726000396000f3fe608060405234801561001057600080fd5b50600436106100db5760003560e01c806306fdde03146100e0578063095ea7b3146100fe57806317700f011461012157806318160ddd1461012b57806323b872dd1461013d578063313ce567146101505780634ada218b1461015f57806370a0823114610173578063715018a61461019c5780638a8c523c146101a45780638da5cb5b146101ac57806395d89b41146101c1578063a9059cbb146101c9578063c069cbe1146101dc578063dd62ed3e146101ef578063f2fde38b14610202578063fc03b68a14610215575b600080fd5b6100e8610228565b6040516100f5919061084f565b60405180910390f35b61011161010c3660046108ba565b6102ba565b60405190151581526020016100f5565b6101296102d4565b005b6002545b6040519081526020016100f5565b61011161014b3660046108e4565b6102eb565b604051601281526020016100f5565b60055461011190600160a01b900460ff1681565b61012f610181366004610920565b6001600160a01b031660009081526020819052604090205490565b61012961030f565b610129610323565b6101b4610340565b6040516100f59190610942565b6100e861034f565b6101116101d73660046108ba565b61035e565b6101296101ea36600461097c565b61036c565b61012f6101fd366004610a53565b6103d6565b610129610210366004610920565b610401565b610129610223366004610a86565b610448565b60606003805461023790610ab0565b80601f016020809104026020016040519081016040528092919081815260200182805461026390610ab0565b80156102b05780601f10610285576101008083540402835291602001916102b0565b820191906000526020600020905b81548152906001019060200180831161029357829003601f168201915b5050505050905090565b6000336102c881858561047b565b60019150505b92915050565b6102dc610488565b6005805460ff60a01b19169055565b6000336102f98582856104ba565b61030485858561050d565b506001949350505050565b610317610488565b610321600061056c565b565b61032b610488565b6005805460ff60a01b1916600160a01b179055565b6005546001600160a01b031690565b60606004805461023790610ab0565b6000336102c881858561050d565b610374610488565b60005b82518110156103d157816007600085848151811061039757610397610aea565b6020908102919091018101516001600160a01b03168252810191909152604001600020805460ff1916911515919091179055600101610377565b505050565b6001600160a01b03918216600090815260016020908152604080832093909416825291909152205490565b610409610488565b6001600160a01b03811661043c576000604051631e4fbdf760e01b81526004016104339190610942565b60405180910390fd5b6104458161056c565b50565b610450610488565b6001600160a01b03919091166000908152600660205260409020805460ff1916911515919091179055565b6103d183838360016105be565b33610491610340565b6001600160a01b031614610321573360405163118cdaa760e01b81526004016104339190610942565b60006104c684846103d6565b9050600019811461050757818110156104f857828183604051637dc7a0d960e11b815260040161043393929190610b00565b610507848484840360006105be565b50505050565b6001600160a01b038316610537576000604051634b637e8f60e11b81526004016104339190610942565b6001600160a01b03821661056157600060405163ec442f0560e01b81526004016104339190610942565b6103d1838383610693565b600580546001600160a01b038381166001600160a01b0319831681179093556040519116919082907f8be0079c531659141344cd1fd0a4f28419497f9722a3daafe3b4186f6b6457e090600090a35050565b6001600160a01b0384166105e857600060405163e602df0560e01b81526004016104339190610942565b6001600160a01b038316610612576000604051634a1406b160e11b81526004016104339190610942565b6001600160a01b038085166000908152600160209081526040808320938716835292905220829055801561050757826001600160a01b0316846001600160a01b03167f8c5be1e5ebec7d5bd14f71427d1e84f3dd0314c0f7b2291e5b200ac8c7c3b9258460405161068591815260200190565b60405180910390a350505050565b6001600160a01b03831660009081526006602052604090205460ff16156106cd576040516309550c7760e01b815260040160405180910390fd5b6001600160a01b038316158015906106ef5750600554600160a01b900460ff16155b801561071457506001600160a01b03831660009081526007602052604090205460ff16155b156107325760405163bcb8b8fb60e01b815260040160405180910390fd5b6103d18383836001600160a01b0383166107635780600260008282546107589190610b21565b909155506107c29050565b6001600160a01b038316600090815260208190526040902054818110156107a35783818360405163391434e360e21b815260040161043393929190610b00565b6001600160a01b03841660009081526020819052604090209082900390555b6001600160a01b0382166107de576002805482900390556107fd565b6001600160a01b03821660009081526020819052604090208054820190555b816001600160a01b0316836001600160a01b03167fddf252ad1be2c89b69c2b068fc378daa952ba7f163c4a11628f55a4df523b3ef8360405161084291815260200190565b60405180910390a3505050565b60006020808352835180602085015260005b8181101561087d57858101830151858201604001528201610861565b506000604082860101526040601f19601f8301168501019250505092915050565b80356001600160a01b03811681146108b557600080fd5b919050565b600080604083850312156108cd57600080fd5b6108d68361089e565b946020939093013593505050565b6000806000606084860312156108f957600080fd5b6109028461089e565b92506109106020850161089e565b9150604084013590509250925092565b60006020828403121561093257600080fd5b61093b8261089e565b9392505050565b6001600160a01b0391909116815260200190565b634e487b7160e01b600052604160045260246000fd5b803580151581146108b557600080fd5b6000806040838503121561098f57600080fd5b823567ffffffffffffffff808211156109a757600080fd5b818501915085601f8301126109bb57600080fd5b81356020828211156109cf576109cf610956565b8160051b604051601f19603f830116810181811086821117156109f4576109f4610956565b604052928352818301935084810182019289841115610a1257600080fd5b948201945b83861015610a3757610a288661089e565b85529482019493820193610a17565b9650610a46905087820161096c565b9450505050509250929050565b60008060408385031215610a6657600080fd5b610a6f8361089e565b9150610a7d6020840161089e565b90509250929050565b60008060408385031215610a9957600080fd5b610aa28361089e565b9150610a7d6020840161096c565b600181811c90821680610ac457607f821691505b602082108103610ae457634e487b7160e01b600052602260045260246000fd5b50919050565b634e487b7160e01b600052603260045260246000fd5b6001600160a01b039390931683526020830191909152604082015260600190565b808201808211156102ce57634e487b7160e01b600052601160045260246000fdfea26469706673582212205b7daae6a7ebe0d1b549f95cebaa0f18a2d9c78bd4be022ae9f07d805990015e64736f6c63430008180033",
  "linkReferences": {},
  "deployedLinkReferences": {}
}